{
  "_format": "hh-sol-artifact-1",
  "contractName": "EmployeeRegistry",
  "sourceName": "contracts/Employ.sol",
  "abi": [
    {
      "anonymous": false,
      "inputs": [
        {
          "indexed": false,
          "internalType": "uint256",
          "name": "employeeId",
          "type": "uint256"
        },
        {
          "indexed": false,
          "internalType": "string",
          "name": "name",
          "type": "string"
        }
      ],
      "name": "EmployeeRegistered",
      "type": "event"
    },
    {
      "inputs": [
        {
          "internalType": "uint256",
          "name": "",
          "type": "uint256"
        }
      ],
      "name": "employees",
      "outputs": [
        {
          "internalType": "string",
          "name": "name",
          "type": "string"
        },
        {
          "internalType": "uint256",
          "name": "employeeId",
          "type": "uint256"
        }
      ],
      "stateMutability": "view",
      "type": "function"
    },
    {
      "inputs": [
        {
          "internalType": "uint256",
          "name": "_employeeId",
          "type": "uint256"
        }
      ],
      "name": "getEmployee",
      "outputs": [
        {
          "components": [
            {
              "internalType": "string",
              "name": "name",
              "type": "string"
            },
            {
              "internalType": "uint256",
              "name": "employeeId",
              "type": "uint256"
            }
          ],
          "internalType": "struct EmployeeRegistry.Employee",
          "name": "",
          "type": "tuple"
        }
      ],
      "stateMutability": "view",
      "type": "function"
    },
    {
      "inputs": [
        {
          "internalType": "string",
          "name": "_name",
          "type": "string"
        },
        {
          "internalType": "uint256",
          "name": "_employeeId",
          "type": "uint256"
        }
      ],
      "name": "registerEmployee",
      "outputs": [],
      "stateMutability": "nonpayable",
      "type": "function"
    }
  ],
  "bytecode": "0x608060405234801561001057600080fd5b50610b2e806100206000396000f3fe608060405234801561001057600080fd5b50600436106100415760003560e01c80634739326b14610046578063bca9a5c514610077578063bce31e6d146100a7575b600080fd5b610060600480360381019061005b91906103cd565b6100c3565b60405161006e929190610499565b60405180910390f35b610091600480360381019061008c91906103cd565b61016f565b60405161009e919061055f565b60405180910390f35b6100c160048036038101906100bc91906106b6565b61028f565b005b60006020528060005260406000206000915090508060000180546100e690610741565b80601f016020809104026020016040519081016040528092919081815260200182805461011290610741565b801561015f5780601f106101345761010080835404028352916020019161015f565b820191906000526020600020905b81548152906001019060200180831161014257829003601f168201915b5050505050908060010154905082565b610177610369565b600080600084815260200190815260200160002060010154036101cf576040517f08c379a00000000000000000000000000000000000000000000000000000000081526004016101c6906107be565b60405180910390fd5b6000808381526020019081526020016000206040518060400160405290816000820180546101fc90610741565b80601f016020809104026020016040519081016040528092919081815260200182805461022890610741565b80156102755780601f1061024a57610100808354040283529160200191610275565b820191906000526020600020905b81548152906001019060200180831161025857829003601f168201915b505050505081526020016001820154815250509050919050565b6103e881101580156102a3575061270f8111155b6102e2576040517f08c379a00000000000000000000000000000000000000000000000000000000081526004016102d99061082a565b60405180910390fd5b604051806040016040528083815260200182815250600080838152602001908152602001600020600082015181600001908161031e91906109f6565b50602082015181600101559050507ff4d644ca0f0f5d3f78c34a2630ff1fa45f8267bddff928e3ced777874921e124818360405161035d929190610ac8565b60405180910390a15050565b604051806040016040528060608152602001600081525090565b6000604051905090565b600080fd5b600080fd5b6000819050919050565b6103aa81610397565b81146103b557600080fd5b50565b6000813590506103c7816103a1565b92915050565b6000602082840312156103e3576103e261038d565b5b60006103f1848285016103b8565b91505092915050565b600081519050919050565b600082825260208201905092915050565b60005b83811015610434578082015181840152602081019050610419565b60008484015250505050565b6000601f19601f8301169050919050565b600061045c826103fa565b6104668185610405565b9350610476818560208601610416565b61047f81610440565b840191505092915050565b61049381610397565b82525050565b600060408201905081810360008301526104b38185610451565b90506104c2602083018461048a565b9392505050565b600082825260208201905092915050565b60006104e5826103fa565b6104ef81856104c9565b93506104ff818560208601610416565b61050881610440565b840191505092915050565b61051c81610397565b82525050565b6000604083016000830151848203600086015261053f82826104da565b91505060208301516105546020860182610513565b508091505092915050565b600060208201905081810360008301526105798184610522565b905092915050565b600080fd5b600080fd5b7f4e487b7100000000000000000000000000000000000000000000000000000000600052604160045260246000fd5b6105c382610440565b810181811067ffffffffffffffff821117156105e2576105e161058b565b5b80604052505050565b60006105f5610383565b905061060182826105ba565b919050565b600067ffffffffffffffff8211156106215761062061058b565b5b61062a82610440565b9050602081019050919050565b82818337600083830152505050565b600061065961065484610606565b6105eb565b90508281526020810184848401111561067557610674610586565b5b610680848285610637565b509392505050565b600082601f83011261069d5761069c610581565b5b81356106ad848260208601610646565b91505092915050565b600080604083850312156106cd576106cc61038d565b5b600083013567ffffffffffffffff8111156106eb576106ea610392565b5b6106f785828601610688565b9250506020610708858286016103b8565b9150509250929050565b7f4e487b7100000000000000000000000000000000000000000000000000000000600052602260045260246000fd5b6000600282049050600182168061075957607f821691505b60208210810361076c5761076b610712565b5b50919050565b7f456d706c6f796565206e6f7420666f756e640000000000000000000000000000600082015250565b60006107a8601283610405565b91506107b382610772565b602082019050919050565b600060208201905081810360008301526107d78161079b565b9050919050565b7f456d706c6f796565204944206d75737420626520342064696769747300000000600082015250565b6000610814601c83610405565b915061081f826107de565b602082019050919050565b6000602082019050818103600083015261084381610807565b9050919050565b60008190508160005260206000209050919050565b60006020601f8301049050919050565b600082821b905092915050565b6000600883026108ac7fffffffffffffffffffffffffffffffffffffffffffffffffffffffffffffffff8261086f565b6108b6868361086f565b95508019841693508086168417925050509392505050565b6000819050919050565b60006108f36108ee6108e984610397565b6108ce565b610397565b9050919050565b6000819050919050565b61090d836108d8565b610921610919826108fa565b84845461087c565b825550505050565b600090565b610936610929565b610941818484610904565b505050565b5b818110156109655761095a60008261092e565b600181019050610947565b5050565b601f8211156109aa5761097b8161084a565b6109848461085f565b81016020851015610993578190505b6109a761099f8561085f565b830182610946565b50505b505050565b600082821c905092915050565b60006109cd600019846008026109af565b1980831691505092915050565b60006109e683836109bc565b9150826002028217905092915050565b6109ff826103fa565b67ffffffffffffffff811115610a1857610a1761058b565b5b610a228254610741565b610a2d828285610969565b600060209050601f831160018114610a605760008415610a4e578287015190505b610a5885826109da565b865550610ac0565b601f198416610a6e8661084a565b60005b82811015610a9657848901518255600182019150602085019450602081019050610a71565b86831015610ab35784890151610aaf601f8916826109bc565b8355505b6001600288020188555050505b505050505050565b6000604082019050610add600083018561048a565b8181036020830152610aef8184610451565b9050939250505056fea264697066735822122041dc626ca8e7c00b52d87e861bc5ba42007e46ce0add367ff4e925286304dc8164736f6c63430008180033",
  "linkReferences": {},
  "deployedLinkReferences": {}
}